S018000046696E616C50726F6A656374436F64652E73726563D0
S113000071C000008FC0000078C6000090C60000D8
S1130010C5C6000002C7000067C7000083C0000017
S113002081C000007FC000007DC000007BC00000D4
S113003079C0000077C0000075C0000073C00000E4
S113004071C000006FC000006DC000006BC00000F4
S113005069C0000067C0000065C0000063C0000004
S113006061C000005FC000005DC000005BC0000014
S113007059C0000088C7000055C0000053C00000EC
S113008051C000004FC000004DC0000047C7000031
S113009049C0000047C0000045C0000043C0000044
S11300A041C000003FC000003DC000003BC0000054
S11300B039C0000037C0000035C0000033C0000064
S11300C031C000002FC000002DC000002BC0000074
S11300D029C0000027C0000025C0000023C0000084
S11300E021C0000011241FBECFEFD1E2DEBFCDBF7F
S11300F000E00CBF12E0A0E0B2E0EEECF4E100E0BE
S11301000BBF02C007900D92A236B107D9F722E0C7
S1130110A2E6B2E001C01D92AA38B207E1F719D4F1
S11301200C94650A26C787B1807F87B9459A46989B
S113013082E08A95F1F700C0479A92E09A95F1F728
S113014000C086B18295807F92E09A95F1F700C055
S1130150479895E09A95F1F70000479A92E09A95AE
S1130160F1F700C096B192E09A95F1F700C0479874
S113017095E09A95F1F700008823F4F2459887B149
S11301808F6087B90895282F22952F708F70611181
S113019002C0469801C0469A92E09A95F1F700C0D1
S11301A0479A98B1907F922B98B995E09A95F1F778
S11301B00000479895E09A95F1F70000479A98B1A6
S11301C0907F892B88B985E08A95F1F700004798DC
S11301D095E09A95F1F70000A6CF0895CF93C82F24
S11301E02FEF86E791E0215080409040E1F700C076
S11301F0000087B18F6087B93F9A3E9A3D9A88B1D3
S1130200807F88B947984598469800C000C0000090
S1130210479A419A25E02A95F1F70000479885E02E
S11302208A95F1F700007FDF60E08C2F8C60ABDFF4
S113023060E088E2A8DFCF910895CF93DF93EC01CB
S11302408881882331F0219661E09DDF89918111B5
S1130250FBCFDF91CF910895EF92FF920F931F93FD
S1130260CF93DF9300D01F921F92CDB7DEB77B01EF
S1130270FE01319625E0DF011D922A95E9F70097EA
S113028051F035962AE030E0B901D7D78293862F12
S1130290972F0097C9F7BFEFEB16FB0669F4898126
S11302A081111DC0FE01329600E010E00F5F1F4F68
S11302B081918823D9F30FC005E010E00E191F09BE
S11302C00AC0F80181918F0161E0805D5CDF0E1549
S11302D01F05B9F711C0053011051CF00DC000E071
S11302E010E081E090E08C0F9D1F080F191F7E0124
S11302F096E0E90EF11CE5CF0F900F900F900F9050
S11303000F90DF91CF911F910F91FF90EF9008957F
S1130310883228F46111806460E0806834CF0895E5
S1130320FC0111821082FB01118210820895CF9387
S1130330DF93EC0184E090E0A7D799838883FC01E4
S113034013821282DF91CF910895DB01ED91FC912C
S1130350309761F0DA018D919C9111979383828398
S11303608D919C91FB01918380830895DA012D91F5
S11303703C911197FC01318320838D919C91DB0189
S11303808D939C930895FC0180819181DB018D9371
S11303909C93A081B181109731F012968D919C911C
S11303A013979183808308950F931F93CF93DF93C3
S11303B0EC018B0188819981009751F0FC01228125
S11303C0338139832883F8D7888199810097B1F7DD
S11303D0F80111821082DF91CF911F910F9108953E
S11303E0DC01ED91FC91309749F080E090E00196BA
S11303F00280F381E02D3097D1F7089580E090E0FA
S11304000895AC01E1E8F0E090819860908388EE73
S113041093E0909389008093880010928500109255
S11304208400B19A20E030E005C0B19BFECFB19AC0
S11304302F5F3F4F241735071CF4B19BF6CFF7CF3E
S11304400895AF92BF92CF92DF92EF92FF920F93F3
S11304501F93CF93DF937B016A01E901892B21F478
S113046016161706E4F039C016161706B4F500E0A0
S113047010E0FE01EE0FFF1FE75AFD4F808182B9A5
S1130480C601BFDFC330D10514F4219602C0C0E019
S1130490D0E00F5F1F4FE016F10659F71EC000E0D1
S11304A010E00F2EF3E0AF2EB12CF02DF501EC1B74
S11304B0FD0BEE0FFF1FE75AFD4F808182B9C60185
S11304C0A0DFC330D10514F4219602C0C0E0D0E00F
S11304D00F5F1F4FE016F10649F7CE01DF91CF9170
S11304E01F910F91FF90EF90DF90CF90BF90AF904E
S11304F00895AF92BF92CF92DF92EF92FF920F9343
S11305001F93CF93DF9300D000D0CDB7DEB76C013B
S11305105901C8011A8219825C834B8321E030E0BF
S11305203E832D83161617060CF03FC07B012B81EA
S11305303C81A216B306C4F42D813E81232BA1F085
S11305404B815C819C0161E070E0C6017ADF2B8104
S11305503C81215031093C832B8329813A812F5FCF
S11305603F4F3A8329831CC029813A812E153F05C8
S113057044F44B815C819C0161E070E0C60161DF61
S11305800FC01E821D824B815C819C0161E070E082
S1130590C60157DF2B813C812F5F3F4F3C832B8368
S11305A021E0E21AF10809F0C2CF26960FB6F894BA
S11305B0DEBF0FBECDBFDF91CF911F910F91FF9092
S11305C0EF90DF90CF90BF90AF900895CF92DF92DD
S11305D0EF92FF920F931F93CF93DF93EC017B0174
S11305E06A01B901330F880B990B38D524EE38E32F
S11305F04EE05FE397D5FFD49601A701CE0179DFE2
S113060090937F0280937E02DF91CF911F910F918F
S1130610FF90EF90DF90CF9008950F931F93CF93A7
S1130620DF93FC01EE0FFF1FEF5AFD4F4081518114
S1130630FB01EE0FFF1FEF5AFD4F2081318142175E
S1130640530709F44CC0EC01C901865A9F4F48175F
S1130650590739F02E3081E0380799F4C330D105B9
S113066081F400917E0210917F022AE530E045E09A
S113067050E061E170E081E090E0A8DF8C2F9D2FD5
S113068030C0C9018A5591094817590741F0225FC2
S11306903E4F4217530799F4C130D10581F40091BC
S11306A07E0210917F022AE530E045E050E061E1EE
S11306B070E080E090E08ADF8C2F9D2F12C00091C3
S11306C07E0210917F0224EB30E045E050E061E1CE
S11306D070E081E090E07ADF8C2F9D2F02C0862F9E
S11306E0972FDF91CF911F910F9108958F3F91051F
S11306F094F09C01205931402D3241E0340770F0D0
S1130700245F31402833310560F08C3B934064F41E
S113071085E090E0089580E090E0089581E090E025
S1130720089582E090E0089583E090E0089560E009
S113073081E029DD60E080E0EBDD8AE092E07DDDB0
S113074061E087E0E5DD8BE192E077DD88EE93E020
S113075058DE61E087E0DCDD8DE192E06EDD88EE5D
S113076093E04FDE61E087E0D3DD8FE192E065DD69
S113077088EE93E046DE61E087E0CADD81E292E044
S11307805CDD8091800290918102892BA9F42091F3
S11307907E0230917F024FE050E061E070E081E042
S11307A090E04FDE90937F0280937E0280918002DE
S11307B090918102892B59F383E090E09093070292
S11307C0809306020895CF93DF93EC018FE085B9FF
S11307D085E090E016DE60E081E0D5DC60E080E05A
S11307E097DD83E292E029DD60E085E091DD62E05F
S11307F070E0CE0131DD61E080E08ADD89E292E0E3
S11308001CDD61E082E084DDC2E7D2E08881998169
S113081062E070E021DD61E084E07ADD8CE292E068
S11308200CDD61E086E074DD8A819B8162E070E02A
S113083013DD61E088E06CDD8FE292E0FEDC61E0D4
S11308408AE066DD8C819D8162E070E005DD61E017
S11308508CE05EDD82E392E0F0DC61E08EE058DD66
S11308608E819F8162E070E0F7DC8091620290915A
S113087063020297D1F360E081E085DC87E085B90B
S1130880DF91CF910895CF93DF938FE085B984E111
S113089090E0B7DD15B810920B0112B811BA1EB86A
S11308A01BB860E081E06FDC60E080E031DD85E36F
S11308B092E0C3DC61E080E02BDD89E292E0BDDC04
S11308C061E082E025DDC2E7D2E08881998162E0BF
S11308D070E0C2DC61E084E01BDD8CE292E0ADDC20
S11308E061E086E015DD8A819B8162E070E0B4DC22
S11308F061E088E00DDD8FE292E09FDC61E08AE058
S113090007DD8C819D8162E070E0A6DC61E08CE013
S1130910FFDC82E392E091DC61E08EE0F9DC8E8121
S11309209F8162E070E098DC80E090E0DF91CF91FD
S11309300895EAE7F0E080818064808380918402F6
S113094090918502892BD1F3109285021092840232
S113095008958F929F92BF92CF92DF92EF92FF926F
S11309600F931F93CF93DF93CDB7DEB72E970FB6B8
S1130970F894DEBF0FBECDBF18861F821E821D8273
S1130980BE016D5F7F4FCE010196CADCE1E6F0E067
S113099080E8808321E02083E1E8F0E080818260C8
S11309A08083F89490EF9AB98FEC8DB98DB38E63F0
S11309B08DBBE9E6F0E080818A6B8083EAE6F0E0B3
S11309C080818A608083E0E9F0E01082108241EC4B
S11309D050EE5093950040939400E1E7F0E080815D
S11309E08160808320939100EAE7F0E08081806851
S11309F08083808188608083ACE7B0E08C918164DF
S1130A008C93789483E084BD15BC84B5806884BDE0
S1130A1085B5836085BD80E687BD8FE884B910BA4B
S1130A208FE081B98FEF87B990930A018081806448
S1130A3080838091840290918502892BD1F3109256
S1130A4085021092840280E094E0909309028093DE
S1130A50080282E0C3DB60E081E095DB68DE60E0F1
S1130A6081E091DB81E090E09093630280936202E5
S1130A7085B1876085B91A8619861B861C861D86F2
S1130A801E8601E010E00F2EFBE0CF2EDD24D39470
S1130A90F02D0F2EFFE0BF2EF02DE12C6894FF24E3
S1130AA0F2F880916202909163028230910509F418
S1130AB0EEC08330910509F4F2C0019709F004C136
S1130AC061E087E025DCBE016D5F7F4FCE010196BA
S1130AD087DCB801C1DB80917C0290917D02892B77
S1130AE0A9F04A9B0DC025DF61E080E011DC809114
S1130AF008029091090264E070E0AEDB4A99F3CFFA
S1130B0010927D0210927C021A87098789859A8542
S1130B10892B49F1BE016D5F7F4FCE01019660DCE8
S1130B20892B31F4BE016D5F7F4FCE010196F8DB56
S1130B30CE010596FCDB8D809E8080910802909109
S1130B400902D4DDF4018083AE014B5F5F4FBE0127
S1130B506D5F7F4FCE010196F8DBF0920902E092BF
S1130B6008021A86198680917A0290917B02892B59
S1130B7009F44DC0BE016D5F7F4FCE01019630DC9C
S1130B80181619060CF043C0BE01695F7F4FCE01F1
S1130B900196F9DBAF81B885EC91F0E0EE0FFF1F11
S1130BA0EE58FD4F808191810196918380838C91D1
S1130BB08295807FF6018083B5B885E090E021DCE2
S1130BC06091060270910702EF81F885808190E0C0
S1130BD024DD909307028093060287E085B98F8114
S1130BE09885EAD310927B0210927A0280916C026B
S1130BF090916D02A0916E02B0916F028093640295
S1130C0090936502A0936602B093670212C080912C
S1130C107A0290917B02892B61F0BE016D5F7F4F58
S1130C20CE010196DDDB892B21F410927B02109218
S1130C307A028091700290917102892B09F431CF6C
S1130C4080916C0290916D02A0916E02B0916F023E
S1130C504B855C856D857E85841B950BA60BB70B38
S1130C6081349F41A105B10508F41BCFBE016D5F1E
S1130C707F4FCE010196B4DB892B09F012CFBE0160
S1130C806D5F7F4FCE0101968FDBFDDD24C0BE0179
S1130C906D5F7F4FCE010196A3DB95DD02CF80917E
S1130CA06C0290916D02A0916E02B0916F028B87DD
S1130CB09C87AD87BE8710937102009370021093D6
S1130CC0630200936202EDCE60E080E021DB83E406
S1130CD092E0B3DAE6CE2E960FB6F894DEBF0FBEDE
S1130CE0CDBFDF91CF911F910F91FF90EF90DF90D7
S1130CF0CF90BF909F908F9008951F920F920FB640
S1130D000F9211248F939F938091620290916302BA
S1130D10892B31F481E090E09093810280938002EA
S1130D209F918F910F900FBE0F901F9018951F9257
S1130D300F920FB60F9211240BB60F922F933F937D
S1130D404F935F936F937F938F939F93AF93BF93CF
S1130D50EF93FF9381E090E054DB4A9B0CC08091B9
S1130D60620290916302019731F481E090E09093E4
S1130D707D0280937C02FF91EF91BF91AF919F918F
S1130D808F917F916F915F914F913F912F910F9030
S1130D900BBE0F900FBE0F901F9018951F920F92CD
S1130DA00FB60F9211244F935F936F937F938F939A
S1130DB09F93AF93BF9380916C0290916D02A09129
S1130DC06E02B0916F02409164025091650260918D
S1130DD0660270916702841B950BA60BB70B8536D0
S1130DE09105A105B10560F08091620290916302C2
S1130DF0019731F481E090E090937B0280937A0232
S1130E00BF91AF919F918F917F916F915F914F911E
S1130E100F900FBE0F901F9018951F920F920FB650
S1130E200F9211240BB60F922F933F934F935F931E
S1130E306F937F938F939F93AF93BF93EF93FF939E
S1130E4080916C0290916D02A0916E02B0916F023C
S1130E50409168025091690260916A0270916B023C
S1130E60841B950BA60BB70B85369105A105B1051F
S1130E7040F18FE090E0C5DA649923C0809162026A
S1130E8090916302029739F481E090E090936302B9
S1130E908093620206C082E090E0909363028093A4
S1130EA0620280916C0290916D02A0916E02B091E9
S1130EB06F028093680290936902A0936A02B093D0
S1130EC06B02FF91EF91BF91AF919F918F917F91B1
S1130ED06F915F914F913F912F910F900BBE0F90A7
S1130EE00FBE0F901F9018951F920F920FB60F927E
S1130EF011248F939F938091620290916302892BB6
S1130F0031F083E090E090936302809362029F91BA
S1130F108F910F900FBE0F901F9018951F920F92F4
S1130F200FB60F9211248F939F93AF93BF9381ECCD
S1130F3090EE909395008093940080916C02909130
S1130F406D02A0916E02B0916F020196A11DB11DB8
S1130F5080936C0290936D02A0936E02B0936F0223
S1130F60BF91AF919F918F910F900FBE0F901F90E3
S1130F7018951F920F920FB60F9211240F900FBE67
S1130F800F901F9018951F920F920FB60F92112475
S1130F902F933F938F939F932091780080917900B2
S1130FA090E0982F8827820F911D9093830280935D
S1130FB082022091820230918302809108029091F2
S1130FC009022817390740F4809182029091830224
S1130FD0909309028093080281E090E09093850247
S1130FE0809384029F918F913F912F910F900FBE18
S1130FF00F901F90189504D06894B1118DC0089576
S113100070D088F09F5790F0B92F9927B751A0F06E
S1131010D1F0660F771F881F991F1AF0BA95C9F788
S113102012C0B13081F077D0B1E0089574C0672F59
S1131030782F8827B85F39F0B93FCCF38695779538
S11310406795B395D9F73EF4909580957095619521
S11310507F4F8F4F9F4F0895E89409C097FB3EF44C
S113106090958095709561957F4F8F4F9F4F9923F1
S1131070A9F0F92F96E9BB279395F695879577956F
S11310806795B795F111F8CFFAF4BB0F11F460FF2F
S11310901BC06F5F7F4F8F4F9F4F16C0882311F087
S11310A096E911C0772321F09EE8872F762F05C09B
S11310B0662371F096E8862F70E060E02AF09A9536
S11310C0660F771F881FDAF7880F9695879597F92B
S11310D0089557FD9058440F551F59F05F3F71F024
S11310E04795880F97FB991F61F09F3F79F087958B
S11310F00895121613061406551FF2CF4695F1DF14
S113110008C0161617061806991FF1CF86957105A3
S1131110610508940895E894BB2766277727CB01D7
S113112097F908950BD078C069D028F06ED018F0E4
S1131130952309F05AC05FC01124EECFCADFA0F393
S1131140959FD1F3950F50E0551F629FF001729F58
S1131150BB27F00DB11D639FAA27F00DB11DAA1F77
S1131160649F6627B00DA11D661F829F2227B00DC4
S1131170A11D621F739FB00DA11D621F839FA00D4F
S1131180611D221F749F3327A00D611D231F849F9F
S1131190600D211D822F762F6A2F11249F575040F6
S11311A08AF0E1F088234AF0EE0FFF1FBB1F661F91
S11311B0771F881F91505040A9F79E3F510570F04A
S11311C014C0AACF5F3FECF3983EDCF38695779585
S11311D06795B795F795E7959F5FC1F7FE2B880F45
S11311E0911D9695879597F9089597F99F6780E8DB
S11311F070E060E008959FEF80EC089500240A9465
S11312001616170618060906089500240A941216DD
S11312101306140605060895092E0394000C11F410
S1131220882352F0BB0F40F4BF2B11F460FF04C0BD
S11312306F5F7F4F8F4F9F4F089597FB072E16F4D4
S1131240009406D077FD08D00BD007FC05D03EF4FF
S1131250909581959F4F0895709561957F4F08955E
S1131260AA1BBB1B51E107C0AA1FBB1FA617B707C8
S113127010F0A61BB70B881F991F5A95A9F78095E4
S11312809095BC01CD0108950F931F93CF93DF93E5
S11312908230910510F482E090E0E0918802F091B0
S11312A0890220E030E0A0E0B0E0309719F14081FD
S11312B051810281138148175907C8F08417950793
S11312C069F4109731F012960C93129713961C93AD
S11312D027C0009388021093890222C0211531058A
S11312E019F04217530718F49A01BD01EF01DF0109
S11312F0F801DBCF21153105F9F0281B390B243017
S1131300310580F48A819B816115710521F0FB010F
S11313109383828304C09093890280938802FE01A0
S1131320329644C0FE01E20FF31F81939193225041
S11313303109398328833AC020918602309187028B
S1131340232B41F42091020230910302309387024F
S1131350209386022091000230910102211531056B
S113136041F42DB73EB74091040250910502241B6D
S1131370350BE0918602F0918702E217F307A0F49F
S11313802E1B3F0B2817390778F0AC014E5F5F4FD7
S11313902417350748F04E0F5F1F50938702409380
S11313A086028193919302C0E0E0F0E0CF01DF91E7
S11313B0CF911F910F910895CF93DF93009709F474
S11313C081C0FC01329713821282A0918802B091ED
S11313D08902109781F420813181820F931F20911B
S11313E08602309187022817390751F5F093870256
S11313F0E093860267C0ED0120E030E0CE17DF07FE
S113140040F44A815B819E0141155105F1F0EA01E6
S1131410F5CFD383C28340815181840F951FC817B0
S1131420D90759F488819981840F951F0296918375
S113143080838A819B81938382832115310529F4DA
S1131440F0938902E09388023DC0E901FB83EA83BB
S113145049915991C40FD51FEC17FD0761F48081A0
S11314609181840F951F0296E90199838883828173
S113147093819B838A83E0E0F0E012968D919C91A6
S11314801397009719F0FD01DC01F7CF8D919C9122
S113149011979D012E5F3F4F820F931F209186026B
S11314A0309187022817390769F4309729F410928C
S11314B089021092880202C013821282B0938702BA
S11114C0A0938602DF91CF910895F894FFCF98
S11314CE00008A02200003000004486F6D696E67F5
S11314DE20537465707065722E2E00330032003105
S11314EE00200042656C743A00413A00533A0057AA
S11314FE3A00423A005379732E2044697361626C48
S113150E656400496E76616C696420537461746518
S113151E005A000E01B400000036002E002D0035D6
S105152E0000B7
S9030000FC
